:020000040800F2
:1000000020500020F5020008851000085B0F000852
:1000100029100008270600080D1200080000000043
:100020000000000000000000000000003502000891
:10003000290600080000000091020008871000084F
:100040000F0300080F0300080F0300080F03000848
:100050000F0300080F0300080F0300080F03000838
:100060000F0300080F0300080F0300080F03000828
:100070000F0300080F0300080F0300080F03000818
:100080000F0300080F0300080F0300080000000022
:100090000000000000000000000000000F03000846
:1000A0000F0300080F0300080F0300080F030008E8
:1000B0000F0300080F030008311100080F030008A8
:1000C0000F0300080F0300080F0300080F030008C8
:1000D0000F0300080F0300080F03000800000000D2
:1000E0000F0300080F0300080F03000800000000C2
:1000F0000000000000000000000000000F030008E6
:10010000000000000F0300080F0300080F030008A1
:1001100000000000000000000000000000000000DF
:100120000F0300080F0300080F0300080F03000867
:100130000F030008000000000000000000000000A5
:100140000000000000000000000000000F03000895
:100150000F0300080F0300080F0300080F03000837
:100160000F0300080F03000800000000000000005B
:10017000000000000000000000000000000000007F
:10018000000000000F030008000000000000000055
:100190000F03000800F002F800F03CF80AA090E815
:1001A000000C82448344AAF10107DA4501D100F032
:1001B00031F8AFF2090EBAE80F0013F0010F18BFC3
:1001C000FB1A43F001031847542A0000742A000068
:1001D000103A24BF78C878C1FAD8520724BF30C873
:1001E00030C144BF04680C60704700000023002445
:1001F00000250026103A28BF78C1FBD8520728BF37
:1002000030C148BF0B6070471FB502F0C3FC1FBD73
:1002100010B510BD00F0D0F91146FFF7F5FF01F061
:1002200007F800F0EEF903B4FFF7F2FF03BC00F0AB
:10023000F3F900002C4B19680868B0E8F04F80F320
:100240000988BFF36F8F4FF0000080F3118870476B
:100250000000000008480068006880F308884FF03C
:10026000000080F3148862B661B6BFF34F8FBFF30E
:100270006F8F00DF00BF00BF08ED00E0DFF80C006B
:10028000016841F470010160704700BF88ED00E033
:10029000EFF30980BFF36F8F134B1A681EF0100F36
:1002A00008BF20ED108A20E9F04F106009B44FF02C
:1002B000500080F31188BFF34F8FBFF36F8F01F0B1
:1002C00007FF4FF0000080F3118809BC1968086827
:1002D000B0E8F04F1EF0100F08BFB0EC108A80F3AA
:1002E0000988BFF36F8F704724000020EFF305806B
:1002F000704700000948804709480047FEE7FEE7CD
:10030000FEE7FEE7FEE7FEE7FEE7FEE7FEE7FEE7C5
:1003100004480549054A064B7047000021110008B2
:1003200095010008204A002020500020204C002089
:10033000204C002053EA020C00F069802DE9F04BBC
:100340004FF00006002B1FBFB3FA83F503FA05F444
:1003500024FA05F65E4012BF1643B2FA82F502FA9D
:1003600005F4C5F120051EBF22FA05FC44EA0C0481
:10037000203556EA044C4FEA144418BF641C4FF071
:1003800000084FF00009904271EB030C39D30029AB
:1003900019BFB1FA81F701FA07F6B0FA80F700FA4F
:1003A00007F6C7F120071EBF20FA07FC46EA0C0635
:1003B0002037B6FBF4FCA7EB0507103F07F01F0B37
:1003C000CBF120060CFA0BFB2CFA06F644BFB34621
:1003D0000026202FA4BF5E464FF0000B5BEA060C00
:1003E00008BF4FF0010B19EB0B09ABFB027C48EB8C
:1003F0000608C01B06FB02CC0BFB03CC71EB0C0107
:10040000C1E70B46024641464846BDE8F08B13B5AE
:100410004FF000004FF00001AFF30080BDE81C403A
:100420007047032A40F2308010F0030C00F0158072
:1004300011F8013BBCF1020F624498BF11F801CBE7
:1004400000F8013B38BF11F8013BA2F1040298BF4C
:1004500000F801CB38BF00F8013B11F0030300F0B6
:100460005780083AC0F0088051F8043B083A51F828
:1004700004CBA0E80810F5E7121D5CBF51F8043B5F
:1004800040F8043BAFF30080D20724BF11F8013BD2
:1004900011F801CB48BF11F8012B24BF00F8013B34
:1004A00000F801CB48BF00F8012B704702F0FF03B2
:1004B00043EA032242EA024200F05EB84FF0000233
:1004C00000B5134694469646203922BFA0E80C504A
:1004D000A0E80C50B1F12001BFF4F7AF090728BF25
:1004E000A0E80C5048BF0CC05DF804EB890028BFA1
:1004F00040F8042B08BF704748BF20F8022B11F0CA
:10050000804F18BF00F8012B704770477047704745
:1005100010B5203AC0F00B80B1E81850203AA0E89E
:100520001850B1E81850A0E81850BFF4F5AF5FEAD2
:10053000027C24BFB1E81850A0E8185044BF18C985
:1005400018C0BDE810405FEA827C24BF51F8043B2C
:1005500040F8043B08BF7047D20728BF31F8023B80
:1005600048BF11F8012B28BF20F8023B48BF00F814
:10057000012B70474FF000020429C0F0128010F0E8
:10058000030C3FF49DAFCCF1040CBCF1020F18BF7B
:1005900000F8012BA8BF20F8022BA1EB0C01FFF7FC
:1005A0008FBF5FEAC17C24BF00F8012B00F8012B4C
:1005B00048BF00F8012B7047754600F029F8AE4699
:1005C00005006946534620F00700854618B020B55F
:1005D000FFF79EFEBDE820404FF000064FF00007F9
:1005E0004FF000084FF0000B21F00701AC46ACE8DB
:1005F000C009ACE8C009ACE8C009ACE8C0098D4648
:1006000070470446AFF300802046FFF70CFE000061
:1006100000487047C049002001491820ABBEFEE7E2
:10062000260002007047FEE77047426921EA020394
:100630000A4043EA02418161704700000148806836
:1006400070470000140000200248816802781144BD
:1006500081607047140000200B4810B5016841F418
:1006600000710160016841F480610160016841F43A
:1006700080710160032000F08DF80F2000F006F873
:1006800000F03EF8002010BD003C024010B50146CD
:1006900088B000221E2000F05DF81E2000F04CF80B
:1006A00013480024016841F004010160006805A9B5
:1006B00000F004000690684600F018F900F036F9E2
:1006C0000C490D4AB0FBF1F10C48491E026040F2A2
:1006D000E732C0E90324C0E9011400F021FB10B1A6
:1006E000012008B010BD054800F040FBF9E700000C
:1006F0004038024040420F0000080040A4000020A3
:100700000C4882B0016841F480410160006800F447
:10071000804000900748001F016841F0805101604F
:100720000068002200F0805000900F21901E02B05F
:1007300000F010B84438024000280ADB00F01F0225
:100740000121914040094FF0E02202EB8000C0F807
:1007500000117047F0B40E4B1B680C46C3F3022324
:10076000C3F10705042D00D90425191D072901D25D
:10077000002300E0DB1E012606FA05F1491E214098
:1007800099409E40761E16403143F0BC00F040BDBB
:100790000CED00E0064900F0070208684FF6FF0381
:1007A000184040EA0220034A1043086070470000E6
:1007B0000CED00E00000FA052DE9F0470E460500BB
:1007C00065D0DFF81481D8F80000F7B200F0070018
:1007D000B04207D288F80070D8F8000000F0070097
:1007E000B04254D128683D4C810712D5400703D54B
:1007F000206840F4E05020602878000703D5206886
:1008000040F4604020602068A96820F0F0000843B0
:1008100020602878C0072DD0304968680839012841
:1008200012D0022813D0032811D0096889070029A3
:100830002DDA216821F0030101432160FFF7FEFE5C
:10084000814641F2883A0EE009688903EFE70968BA
:100850008901ECE7FFF7F2FEA0EB0901514502D94F
:100860000320BDE8F0872068696800F00C00B0EB59
:10087000810FEFD1D8F80010404601F00701B142D6
:1008800007D90770006800F00700B04201D00120CE
:10089000E7E72878400705D52068E96820F4E050AC
:1008A000084320602878000706D52068296920F4CD
:1008B000604040EAC100206000F048F82168084A22
:1008C000C1F30311515CC84006490860064800683E
:1008D000FFF7DCFE0020C4E7003C0240083802407D
:1008E000E42B000820000020180000200F220260E6
:1008F0000C4A136803F003034360136803F0F0032A
:100900008360136803F4E053C36012684FF4E0534C
:1009100003EAD20202610448006800F007000860A0
:100920007047000008380240003C02400448054976
:1009300000680968044AC1F38221515CC8407047CD
:100940002000002008380240F42B0008154810B59C
:10095000006810F00C02144813D01449042A0FD078
:10096000082A0ED10F4C241F2268236802F03F0290
:100970005B0207D52068C0F38810A0FB010106E0E8
:10098000084610BD2168C1F38811A1FB00010023B6
:10099000FFF7D0FC2168C1F30141491C4900B0FBBD
:1009A000F1F010BD083802400024F40040787D01C9
:1009B0002DE9F84F04006ED02078DFF84C93C00783
:1009C000A9F104054AD009F104000168C1F38101CD
:1009D000012908D00068C0F3810002280AD1D9F8A3
:1009E0000000400206D52868800337D560680028DB
:1009F000E1D033E06068B0F5803F10D0B0F5A02FB3
:100A0000286810D020F480302860286820F48020E6
:100A100028606068A8B1FFF711FE06460DE028685F
:100A200040F48030F4E740F480202860F7E700BF0E
:100A3000FFF704FE801B642873D828688003F7D56D
:100A40000CE0FFF7FBFD064605E000BFFFF7F6FDF3
:100A5000801B6428F0D828688003F7D42078DFF85A
:100A6000AC8280074FF0000A3ED5A748001D016800
:100A700011F00C0F08D00068C0F3810002280BD1E0
:100A8000D9F80000400207D42868800716D5E0682E
:100A9000012800D112E033E1E068B8B10120C8F8C4
:100AA0000000FFF7CBFD064605E000BFFFF7C6FDDF
:100AB000801B0228C0D828688007F7D528682169DC
:100AC00020F0F80040EAC10028600DE0C8F800A05E
:100AD000FFF7B4FD064604E0FFF7B0FD801B0228D7
:100AE000AAD828688007F7D42078000722D5864F37
:100AF00087486169703771B101210160FFF79EFD80
:100B0000064604E0FFF79AFD801B022809D83868E2
:100B10008007F7D50EE0C0F800A0FFF78FFD06466E
:100B200005E083E0FFF78AFD801B02287ED8386845
:100B30008007F7D42078400769D5DFF8CCB10027CB
:100B40000BF13C0BDBF80000C0000BD4DBF800100D
:100B500041F08051CBF80010DBF80000012700F0D5
:100B6000805000906B4E3068C00510D4306840F45F
:100B700080703060FFF762FD009005E0FFF75EFDDA
:100B80000099401A022851D83068C005F6D55E4E4B
:100B9000A0686C3601280FD00528306810D020F0EE
:100BA00001003060306820F004003060A068B8B107
:100BB000FFF744FD00900FE0306840F00100F4E7DB
:100BC00040F004003060F7E7FFF738FD0099411A64
:100BD00041F28830814266D830688007F4D50EE053
:100BE000FFF72CFD009007E0FFF728FD0099411A60
:100BF00041F28830814256D830688007F4D4012F02
:100C000005D1DBF8001021F08051CBF80010A0696D
:100C1000C0B33D49091D0968C1F38101022949D0CA
:100C20000228504607D0C8F8600000E03BE0FFF71C
:100C300005FD04463AE04746C8F86000FFF7FEFCB1
:100C4000064604E0FFF7FAFC801B02282BD8286830
:100C50008001F7D4D4E907010843A16A2E4A490864
:100C600002EB0141626A41EA8211084394F82C10B8
:100C700040EA0161C9F8001001203866FFF7DEFC88
:100C8000044606E03EE000BFFFF7D8FC001B022848
:100C900009D828688001F7D534E000BFFFF7CEFC03
:100CA000001B022802D90320BDE8F88F28688001C4
:100CB000F4D427E00128F7D0D9F80000E26900F465
:100CC000800191421CD1226A00F03F01914217D16C
:100CD00047F6C071626A0140B1EB821F10D1A26A6F
:100CE0004FF0FF3300F4403103EB5202B1EB024FFF
:100CF00006D194F82C1000F07060B0EB016F01D0B9
:100D00000120D1E70020CFE704380240000047422D
:100D1000800E4742007000400000FFFF70477047A0
:100D200010B5040003D094F83D0010B107E0012095
:100D300010BD002084F83C00204600F015F8022089
:100D400084F83D00211D206800F0F8F901203D34B1
:100D500060726070A070E07020716071A071E071CD
:100D600020722070002010BD7047000090F83D10E8
:100D7000012901D001207047022180F83D1001684F
:100D8000CA6842F00102CA6000680E4988420ED06B
:100D9000B0F1804F0BD00C49884208D00B498842F3
:100DA00005D00B49884202D00A49884204D18168A3
:100DB00001F00701062903D0016841F0010101603B
:100DC000002070470000014000040040000800407F
:100DD000000C004000400140704770B504460068B8
:100DE00001694FF00005C943890715D4C168C9439B
:100DF000890711D4E91E01610120207720688069EC
:100E00008007204602D0FFF7E7FF04E000F098F8E3
:100E1000204600F096F8257720680169C943490704
:100E200017D4C168C943490713D46FF004010161A5
:100E3000022020772068806910F4407F204602D08D
:100E4000FFF7CAFF04E000F07BF8204600F079F8D5
:100E5000257720680169C943090716D4C168C943C9
:100E6000090712D46FF0080101610420207720687F
:100E7000C0698007204602D0FFF7AEFF04E000F013
:100E80005FF8204600F05DF8257720680169C943C6
:100E9000C90617D4C168C943C90613D46FF010013D
:100EA0000161082020772068C06910F4407F204647
:100EB00002D0FFF791FF04E000F042F8204600F076
:100EC00040F8257720680169C943C90708D1C1687E
:100ED000C943C90704D1891E0161204600F032F8D8
:100EE00020680169C943090609D4C168C9430906D4
:100EF00005D46FF0800101612046FFF70FFF2068E5
:100F00000169C943490609D4C168C943490605D4E2
:100F10006FF040010161204600F01EF82068016971
:100F2000C94389060BD4C168C943890607D46FF049
:100F3000200101612046BDE87040FFF7F0BE70BDA2
:100F40007047704700680349884201D1FFF77CBBB6
:100F500070470000000800407047FEE738B51D4BA1
:100F6000002201211C4800F0EFF91C4C194B002213
:100F7000E060103311461A4800F0E6F92061194D7F
:100F800003230122642118A0009501F06DFD60602B
:100F900004230122C82116A0009501F065FD6060C0
:100FA000052301224FF4967113A0009501F05CFD1A
:100FB0006060062301224FF4C87111A0009501F072
:100FC00053FD044A6060243A00210F4800F078F98C
:100FD000A06038BDC42B00082D10000800000020C0
:100FE0003D1000084D10000854696D657233000013
:100FF00054696D657234000054696D657235000086
:1010000054696D6572360000D5110008054808B5B1
:10101000016841F080010160006800F080000090EC
:1010200008BD000030380240FEE700000248018899
:1010300081F00101018070470000002002484188D2
:1010400081F00101418070470000002010B500F0E0
:101050002DFE0B4A03280BD004280BD005280BD0FB
:1010600006280BD10821BDE810401046FFF7DDBA75
:101070000121F8E70221F6E70421F4E710BD0000A2
:1010800000040240FEE710B54FF0E020006901F0D7
:1010900099FB012803D0BDE8104001F0C7B810BD8E
:1010A00010B592B030216846FFF708FA14210CA859
:1010B000FFF704FA18480024016841F080510160EC
:1010C000006800F0805011901448016821F44041FC
:1010D00041F4004101600068069400F44040119022
:1010E0000220009001200390102004906846FFF732
:1010F0005FFC08B172B6FEE70F20CDE90C040E9438
:101100000F9400210CA81094FFF756FB002801D083
:1011100072B6FEE712B010BD4038024000700040C9
:101120000248016841F470010160704788ED00E0F9
:101130000148FFF752BE0000A4000020F0B502688D
:101140001D4B1E4C9F031E4D1E4E984207D0B842A9
:1011500005D0A04203D0A84201D0B04204D122F071
:10116000700C4A6842EA0C02984210D0B8420ED085
:10117000A0420CD0A8420AD0B04208D0124CA042E3
:1011800005D0124CA04202D0114CA04203D122F44F
:101190004074CA6822434C6922F0800222430260F4
:1011A0008A68C2620A688262984201D10969016351
:1011B00001214161F0BD0000000001400004004039
:1011C00000080040000C0040004001400044014085
:1011D00000480140064C6421E06800F0F1F8642109
:1011E000206900F0EDF8012000F02FF8FBE7000087
:1011F0000000002010B500F059FD002805D0D0E90E
:101200000021BDE810400846104710BDFEE7000071
:101210000907090E002801DB034A02E0034A00F037
:101220000F0081547047000000E400E014ED00E07E
:10123000FFF712FAFFF734FFFFF7E8FE00F012F8AD
:10124000FFF78CFE00F020F8FEE710B5EFF3058104
:1012500011B16FF0050403E0002408B100F084FE32
:10126000204610BDEFF3058010B16FF00500704708
:101270000448016811B14FF0FF307047012101604F
:10128000002070477400002010B5EFF3058010B106
:101290006FF0050010BD08480168012902D04FF029
:1012A000FF3010BD054A002111700221016000F0DD
:1012B000C3FE002010BD0000740000201FED00E000
:1012C0002DE9FF410B464FF00005EFF30581039533
:1012D00049BB40B38027182100244AB3166806B1E1
:1012E000344696691EB13146761E382E02D21679E2
:1012F000F60703D0002004B0BDE8F081566906B1BE
:10130000B708D2F808C0BCF1000F0DD0D5685C2D2D
:1013100018D312693AB136B18DE806103A46214623
:1013200001F025FA03900DE0D6685EB912694AB95A
:1013300003AACDE90012BAB2214601F0EBF9012867
:1013400000D003950398D6E72DE9FC471C4690464C
:10135000894607464FF00006EFF3058058BB57B3A8
:10136000082000F035FC050025D0C5E90078B9F16A
:10137000000F12D00122114B002094B1216801B15D
:101380000846A16859B1E4682C2C11D3CDE900318D
:101390002B46012101F082FB08E00022EBE7E16827
:1013A00031B900932B46012101F05EFB060002D10A
:1013B000284600F033FD3046BDE8FC87F5110008F3
:1013C00008B5EFF3058212B16FF0050008BD58B102
:1013D0000022134600920A46042101F0A7FB0128CF
:1013E00005D06FF0020008BD6FF0030008BD0020BB
:1013F00008BD00002DE9F041134C0F460546E66894
:101400002068001D00F07AFC681C07D137B1216804
:10141000BDE8F041091D0D4800F0C0BC206835440E
:10142000B5424560216801F1040104D2A06BBDE81A
:10143000F04100F09BBC606B00F098FCA06A854214
:1014400000D2A562BDE8F08124000020DC05002068
:101450002DE9F041054600F0ADFC2D4CA068401C84
:10146000A06020682B4F10B1606930B32BE025607D
:10147000A068012827D1002606EB860007EB800034
:1014800000F066FC761C382EF6D3234800F060FC92
:101490002148143000F05CFC1F48283000F058FC54
:1014A0001D483C3000F054FC1B48503000F050FC0C
:1014B000194860631430A06305E02068E96AC06AD7
:1014C000884200D82560606A401C60626864E86AEF
:1014D0002169884200D9206100EB800007EB800081
:1014E000291D00F05BFC00F085FC606900280CD031
:1014F0002068E96AC06A884207D208494FF08050E4
:101500000860BFF34F8FBFF36F8FBDE8F08100001D
:10151000240000202C0100208C05002004ED00E0B8
:1015200038B500F047FC104C2068C8B90F4800F0EF
:101530000FFC0E48143000F00BFC0C48E060143037
:1015400020610A4B0020F03B009003F15002102173
:101550000A2000F081FE206010B105A100F0CCFC53
:10156000BDE8384000F046BC60000020E0060020E6
:10157000546D72510000000030B4026C0B46002A1A
:101580000BD0C1681144C1608468A14201D30168D5
:10159000C16030BC1846FEF744BF30BC70472DE92F
:1015A000F041856B174604460026026C82B1C7B134
:1015B000E068FEF736FFE168206C091AE1602268F6
:1015C000914202D2A168081AE060022F16D017E0FB
:1015D0002068A8B9A06801F06DF906460020A06057
:1015E0000EE06068FEF71DFF216C606808446060D3
:1015F000A168884204D32068606001E005B16D1ED7
:101600006D1CA5633046BDE8F08110B5044690F826
:10161000590058B101280CD002280FD0502080F377
:101620001188BFF34F8FBFF36F8FFEE7206B00F081
:10163000F5FB2046BDE8104000F0F0BB10BD0000F7
:1016400010484FF47051420706D0C01D0D4920F0DC
:101650000700411AC1F570510B4A00230144C2E949
:1016600000030839183A21F0070111604B600B6044
:101670000B1AC0E9001393604FF0004053605061B3
:1016800070470000C00D002090000020144E154C43
:10169000A6F29C474FF08058DFF84C9012E000BF54
:1016A00000F088FBF068C568281D00F027FBA068E3
:1016B000401EA0606068401E606000F09BFB2846F2
:1016C000FFF7A3FF60680028EAD138680128F9D93C
:1016D000C9F80080BFF34F8FBFF36F8FF2E70000B0
:1016E000C80500202400002004ED00E070B51D4670
:1016F000049C51B1C4F80020C4E90F010121204627
:1017000000F0DEFD84F84C5070BD2460F4E700006A
:101710002DE9F05F8846DDE90B941546834691007C
:101720009A460A9EA522206BFEF7C0FE6FF00301C9
:10173000206B01EB8501084420F00707780707D0EC
:10174000502080F31188BFF34F8FBFF36F8FFEE7F8
:101750000025B8F1000F0FD05FF00000221818F834
:10176000001082F8341018F8001011B1401C102835
:10177000F4D384F8435001E084F83450382E00D379
:101780003726E662C4E91365201D00F0ECFA04F187
:10179000180000F0E8FAC6F138002461A061646224
:1017A000656584F8585052465946384600F090FA1C
:1017B0002060B9F1000F01D0C9F80040BDE8F09FEA
:1017C0002DE9F0471E46DDE9089417460D008046D6
:1017D00015D0002C11D0FFF7A3FE04F11801C4F8B6
:1017E0000080A1E86002201D00F0BDFA002F04D0A7
:1017F00014F8280F40F004002070BDE8F087502056
:1018000080F31188BFF34F8FBFF36F8FFEE70000A7
:1018100030B5114900E011460A688242FBD34B689B
:101820005C18844203D14068184448600846436805
:101830001C18944209D1084C183C2468A24209D0D3
:1018400052681A4442600A6812680260814200D0FD
:10185000086030BD0460F9E79000002070B50024F6
:101860000B4D41609142006106D8D11A82699142C4
:1018700006D2011D286907E09A4203D2994201D39A
:10188000012403E0011DE86800F070FA204670BDF5
:101890006000002010B5044600F08CFAA06B28B15F
:1018A0005FF0000400F0A6FA204610BD0124F9E71D
:1018B00030B589B03C4D6EE00498002806DADDE9C9
:1018C0000601059A90470498002864DB069C60692D
:1018D00010B1201D00F012FA03A800F0D7F802465C
:1018E00004980A2857D2DFE800F00505052D334A91
:1018F00005052D3394F8280040F0010084F82800F5
:101900000599A069059B01442046FFF7A7FF68B32E
:10191000216A2046884794F8280040073BD50020DC
:1019200000900598A169002342181946204601F04D
:10193000FDF8D8B9502080F31188BFF34F8FBFF363
:101940006F8FFEE714F8280F20F00100207022E0CE
:1019500094F8280040F0010084F828000598A06160
:1019600028B1811813462046FFF778FF13E0502076
:1019700080F31188BFF34F8FBFF36F8FFEE794F8AA
:101980002800810703D4204600F048FA03E020F045
:10199000010084F82800002204A9286800F0E4FD72
:1019A000002889D109B030BD600000202DE9FC413C
:1019B0000F46054600F084FB01A800F067F80446D6
:1019C000019818B100F0EEFFBDE8FC81254EAFB1E3
:1019D00030690068D0B30027291B3A46306800F010
:1019E0009FFA00F0DFFF0028EED11F494FF0805032
:1019F0000860BFF34F8FBFF36F8FE5E7A542EBD8C9
:101A000000F0D0FFF0682746C068C468201D00F0D1
:101A100075F994F82800410719D5A0692B4641199A
:101A20003A462046FFF71AFFA8B1002003460146B8
:101A300000902A46204601F079F860B9502080F3E2
:101A40001188BFF34F8FBFF36F8FFEE707E020F0E1
:101A5000010084F82800216A20468847B4E701275E
:101A6000BAE700006000002004ED00E00648416B8A
:101A7000096829B1416BC968C968496881627047C2
:101A80004FF0FF31FAE700002400002070B5054652
:101A900000F0A6FE064E0446B068844203D200F071
:101AA00009F8012000E0002028602046B46070BDE5
:101AB00060000020F8B5194D20E0C068C4680668D1
:101AC000201D00F01BF9216A2046884794F8280061
:101AD000400713D5A0693044B04206D92461606044
:101AE000211DE86800F042F908E0002003460146A5
:101AF00000903246204601F019F838B1E8680168D4
:101B00000029DAD12969C5E90310F8BD502080F316
:101B10001188BFF34F8FBFF36F8FFEE76000002087
:101B200006484068401C4FF0500080F31188BFF316
:101B30004F8FBFF36F8F00D0FEE7FEE798000020C5
:101B4000074CE068016841B1C0680021D0F800008E
:101B5000FFF72CFFFFF7ACFEF3E701210020F7E7CA
:101B6000600000202DE9F041044600F023F994F9CB
:101B7000455004F1240609E0606A48B1304600F09F
:101B8000D9FE08B100F01EFA6D1E6DB2002DF3DC17
:101B90004FF0FF3684F8456000F02CF900F00AF9A8
:101BA00094F9445004F1100709E0206948B138461F
:101BB00000F0C0FE08B100F005FA6D1E6DB2002DF8
:101BC000F3DC84F84460BDE8F04100F013B9000094
:101BD0002DE9F0410546002700F072FA324E3068D8
:101BE00008B9FFF72DFD706905424ED1C5B3083520
:101BF00068070ED005F00700C0F10800054468072B
:101C000007D0502080F31188BFF34F8FBFF36F8F41
:101C1000FEE72DB37068854237D823481830014657
:101C20000C6801E020460C466168A94202D2216896
:101C30000029F7D131688C4227D0076821680160FC
:101C400060680837411B10290FD96019420708D076
:101C5000502080F31188BFF34F8FBFF36F8FFEE7E3
:101C600013E041606560FFF7D3FD61687068401A5A
:101C70007060B268904200D2B06070690143002089
:101C8000C4E90001F068401CF06000F08BFE7807AA
:101C900007D0502080F31188BFF34F8FBFF36F8FB1
:101CA000FEE73846BDE8F0817800002010B504005A
:101CB00006D000F07FF8E46900F09CF8204610BDE3
:101CC000502080F31188BFF34F8FBFF36F8FFEE773
:101CD00010B5031F4FF080741C601B1F21F0010121
:101CE0001960191F044B0B6014390A60091F6FF04B
:101CF000020244380A6010BD211B0008D0E90132FD
:101D000001699A60D0E901235A604A68824201D190
:101D100082684A60002202610868401E0860086804
:101D200070470000034B036003F15C0008608020F3
:101D30001060704708070020044B036003F15C004B
:101D400008604FF480701060704700006409002044
:101D500000F108014FF0FF32C0E90112C1600161DA
:101D600000210160704700210161704730B50B68A8
:101D70005A1C02D000F1080202E0026904E0224687
:101D8000546825689D42FAD953684B6099608A600F
:101D9000516008610168491C016030BD42684A60B9
:101DA00093688B6093685960916008610168491C71
:101DB00001607047502080F31188BFF34F8FBFF34D
:101DC0006F8F0A494868401C486001280CD10848B8
:101DD000006810F0FF0F07D0502080F31188BFF388
:101DE0004F8FBFF36F8FFEE7704700009800002011
:101DF00004ED00E00849486828B1401E486001D160
:101E000080F311887047502080F31188BFF34F8F03
:101E1000BFF36F8FFEE700009800002070B5002828
:101E20002AD0164DA0F1080460686969084209D0FB
:101E300022687AB1502080F31188BFF34F8FBFF32F
:101E40006F8FFEE7502080F31188BFF34F8FBFF3F1
:101E50006F8FFEE78843606000F032F96068696860
:101E6000084468602046FFF7D3FC2869401C2861BD
:101E7000BDE8704000F096BD70BD00007800002005
:101E80004FF0E02000210161816105494FF47A7231
:101E90000968B1FBF2F1491E4161072101617047F8
:101EA0002000002010B5FEF721FA114910280FD3A9
:101EB0004FF0E022104490F8F0030A78904207D2E5
:101EC000502080F31188BFF34F8FBFF36F8FFEE771
:101ED00008480068896800F4E060884207D950200B
:101EE00080F31188BFF34F8FBFF36F8FFEE710BDF4
:101EF000980000200CED00E010B5084B002200BF58
:101F000053F832401CB1521C082AF9D310BD43F8D3
:101F1000321003EBC201486010BD0000EC0000204D
:101F200070B515460E460446FFF744FF94F9441079
:101F30004FF00000491C01D184F8440094F9451089
:101F4000491C01D184F84500FFF754FFA06B28B964
:101F50002A46314604F1240000F052F82046BDE83C
:101F60007040FFF7FFBD000010B5020014D00F480D
:101F7000006B38B1502080F31188BFF34F8FBFF34F
:101F80006F8FFEE700F09CF800211046FFF732FA51
:101F900000F008FD002807D105494FF08050086087
:101FA000BFF34F8FBFF36F8F10BD000024000020E0
:101FB00004ED00E002490A6A0260C96841607047A6
:101FC0002400002001490120C8617047240000203E
:101FD00010B50C4650B1094909681831FFF7C6FE23
:101FE0002046BDE810400121FFF704BA502080F3DD
:101FF0001188BFF34F8FBFF36F8FFEE724000020DF
:1020000070B514460D4668B10A4909681831FFF7E2
:10201000C5FE0CB14FF0FF3521462846BDE87040A3
:10202000FFF7E8B9502080F31188BFF34F8FBFF35B
:102030006F8FFEE72400002030B587B000240394A2
:1020400005AA04A903A80494FFF76CFEDDE90301C7
:102050000094CDE90110002315A11748059A00F05E
:1020600086FB164D0028E8621FD000F02FFD0128E6
:1020700009D0401C19D1502080F31188BFF34F8F35
:10208000BFF36F8FFEE7502080F31188BFF34F8FAF
:10209000BFF36F8F4FF0FF30A86201206861EC60E2
:1020A00007B0BDE8304000F045B807B030BD0000D3
:1020B00049444C45000000008D1600082400002013
:1020C0000248016B491C0163704700002400002096
:1020D000164810B5016B11B10121C16110BD00217D
:1020E000C1610169124A01E0B9B1491E01EB8103E6
:1020F00052F82330002BF7D001EB810302EB83026F
:1021000002F1080453685B685360A34201D15B6825
:102110005360DA680260016110BD502080F31188BD
:10212000BFF34F8FBFF36F8FFEE700002400002046
:102130002C0100201CB538480168384A914207D16B
:10214000502080F31188BFF34F8FBFF36F8FFEE7EE
:1021500000683249491E884207D1502080F3118817
:10216000BFF34F8FBFF36F8FFEE72D4908780190C3
:10217000FF20087008788DF800009DF800009DF899
:10218000002000F0F000904207D0502080F311882A
:10219000BFF34F8FBFF36F8FFEE79DF80000214C18
:1021A00000F0500020700720A06007E09DF800209C
:1021B000A0F101004FEA42028DF800209DF80020B6
:1021C0001206F3D4A060032807D0502080F31188B2
:1021D000BFF34F8FBFF36F8FFEE74FF44070A060E7
:1021E000019808700C482030016841F470010160CA
:1021F000016841F070410160FFF742FE002060601D
:10220000FEF73CF80848016841F040410160FEF7E4
:1022100021F800201CBD000000ED00E071C20F415C
:1022200000E400E09800002034EF00E010B55020FA
:1022300080F31188BFF34F8FBFF36F8F00F0D6FA92
:1022400018B104494FF080500860002080F31188D5
:1022500010BD000004ED00E038B5049D18B153B185
:10226000CAB181B120E0502080F31188BFF34F8FB5
:10227000BFF36F8FFEE7502080F31188BFF34F8FBD
:10228000BFF36F8FFEE7502080F31188BFF34F8FAD
:10229000BFF36F8FFEE739B1502080F31188BFF391
:1022A0004F8FBFF36F8FFEE750241C46012384F845
:1022B00046302B460094FFF719FA204638BD00003F
:1022C00070B50D46040025D0FFF774FDD4E90F204A
:1022D000216802FB0011A1600021A16321686160F7
:1022E0000A46E06B216C401E00FB0121E16004F115
:1022F00044014FF0FF300870487004F110008DB1B8
:10230000FFF726FD04F12400FFF722FDFFF772FD21
:10231000012070BD502080F31188BFF34F8FBFF3B1
:102320006F8FFEE721690029F0D000F003FB002841
:10233000ECD004494FF080500860BFF34F8FBFF3DB
:102340006F8FE3E704ED00E02DE9FF4782B01D4603
:102350008A464FF00008040003D0BAF1000F08D0FD
:1023600011E0502080F31188BFF34F8FBFF36F8FC0
:10237000FEE7206C38B1502080F31188BFF34F8FF7
:10238000BFF36F8FFEE7022D0AD1E06B012807D063
:10239000502080F31188BFF34F8FBFF36F8FFEE79C
:1023A00000F010FA3F4F4FF000094FF0805648B947
:1023B000049838B1502080F31188BFF34F8FBFF3DA
:1023C0006F8FFEE7FFF7F6FCA06BE16B884207D347
:1023D000022D05D00498D0B1B8F1000F1AD01EE03C
:1023E0002A4651462046FFF7DAF8616A19B104F12E
:1023F000240000F09FFA20B13E60BFF34F8FBFF37F
:102400006F8FFFF7F7FC012006B0BDE8F087FFF7FC
:10241000F1FC22E06846FFF7CDFD4FF00108FFF721
:10242000E9FCFFF74DFEFFF7C5FC94F94400401CA2
:1024300001D184F8449094F94500401C01D184F8FE
:102440004590FFF7D7FC04A9684600F029F930B1A0
:102450002046FFF787FB00F0A5FA0020D4E7FFF73E
:10246000A9FCA06BE16B884213D1FFF7C3FC04F118
:1024700010000499FFF7ACFD2046FFF773FB00F056
:1024800091FA00289ED13E60BFF34F8FBFF36F8F4C
:1024900098E7FFF7AFFC2046FFF764FB00F082FAF5
:1024A00090E7000004ED00E02DE9F0471F4690465C
:1024B0008946040003D0B9F1000F08D011E0502084
:1024C00080F31188BFF34F8FBFF36F8FFEE7206C4F
:1024D00038B1502080F31188BFF34F8FBFF36F8F57
:1024E000FEE7022F0AD1E06B012807D0502080F3CD
:1024F0001188BFF34F8FBFF36F8FFEE7FFF7D2FC5A
:102500005020EFF3118680F31188BFF34F8FBFF394
:102510006F8FA06BE16B884206D3022F04D000209E
:1025200086F31188BDE8F08794F94550A06B3A46D0
:1025300049462046FFF733F8681C04D06D1C84F828
:1025400045500120ECE7606A0028FAD004F124002D
:1025500000F0F0F90028F4D0B8F1000FF1D001211B
:10256000C8F80010EDE700002DE9F747002683B01A
:102570008A46040003D0BAF1000F08D011E05020C1
:1025800080F31188BFF34F8FBFF36F8FFEE7206C8E
:1025900038B1502080F31188BFF34F8FBFF36F8F96
:1025A000FEE700F00FF9DFF8F4804FF000094FF07C
:1025B000805748B9059838B1502080F31188BFF38F
:1025C0004F8FBFF36F8FFEE7FFF7F4FBA56BC5B12D
:1025D00051462046FEF7D0FF6D1EA563206950B11D
:1025E00004F1100000F0A6F928B1C8F80070BFF39C
:1025F0004F8FBFF36F8FFFF7FDFB012006B0BDE8E3
:10260000F087059808B11EB106E0FFF7F3FB27E05D
:102610006846FFF7CFFC0126FFF7ECFBFFF750FD04
:10262000FFF7C8FB94F94400401C01D184F84490A2
:1026300094F94500401C01D184F84590FFF7DAFB7E
:1026400005A9684600F02CF8002820460AD0FFF7BC
:1026500089FA00F0A7F92046FFF71CF90028B3D04B
:102660000020CBE7FFF716F990B104F1240005999B
:10267000FFF7AEFC2046FFF775FA00F093F900284B
:10268000A2D1C8F80070BFF34F8FBFF36F8F9BE7E5
:102690002046FFF767FA00F085F995E704ED00E0C2
:1026A0002DE9F0410C46050011D0C4B1FFF782FBC3
:1026B000174BDA686E682068911B471C17D02F688B
:1026C0001B6A9F4219D0964217D8012410E050206F
:1026D00080F31188BFF34F8FBFF36F8FFEE7502059
:1026E00080F31188BFF34F8FBFF36F8FFEE7002495
:1026F000FFF780FB2046BDE8F081884205D9401AEB
:1027000020602846FFF756FCF1E700202060DCE758
:10271000240000202DE9FF5F8346DDE90E879946FE
:1027200016468A469000FFF753FA05001CD05C203D
:10273000FFF74EFA040014D00020256384F85900F6
:10274000CDE90240CDE900874B4632465146584616
:10275000FEF7DEFF2046FEF77BFE012004B0BDE859
:10276000F09F2846FFF75AFB4FF0FF30F6E7F0B531
:1027700085B0DDE90B640A9DA6B1DCB15C2700974A
:102780002663022684F85960002604AFCDE902468C
:10279000CDE90057FEF7BCFF2046FEF759FE04982E
:1027A00005B0F0BD502080F31188BFF34F8FBFF309
:1027B0006F8FFEE7502080F31188BFF34F8FBFF378
:1027C0006F8FFEE70548416919B1006B18B1002011
:1027D000704701207047022070470000240000204D
:1027E0000148C06870470000240000202DE9F04136
:1027F0002E4C0027206B28B1A069401CA0613846F0
:10280000BDE8F081E668761CE66013D1606B006875
:1028100038B1502080F31188BFF34F8FBFF36F8F13
:10282000FEE7606BA16B6163A063206A401C2062BD
:10283000FFF71CF9A06ADFF87880864209D3606B45
:102840000068A0B1606BC068C5686868864211D234
:10285000A0622068C06A00EB800158F821000128BE
:1028600000D90127E0690028C9D00127C7E74FF048
:10287000FF30EDE7281DFFF741FAA86A18B105F10E
:102880001800FFF73BFAE86A2169884200D9206105
:1028900000EB800108EB8100291DFFF77FFAE86A51
:1028A0002168C96A8842CAD30127C8E724000020EA
:1028B0002C01002070B504004FF0000133D01B4DF7
:1028C0002868844207D0502080F31188BFF34F8FCF
:1028D000BFF36F8FFEE7206D38B1401E2065E36CBB
:1028E000E26A9A421FD040B11DE0502080F3118867
:1028F000BFF34F8FBFF36F8FFEE7201DFFF7FEF989
:10290000E06CE062C0F13800A061E06A29698842A9
:1029100000D92861064900EB800001EB8000211DF1
:10292000FFF73CFA0121084670BD0000240000209A
:102930002C01002070B5C068C46854B104F11800BF
:102940000646FFF7DBF9144D286B50B131461348AA
:1029500015E0502080F31188BFF34F8FBFF36F8FC6
:10296000FEE7201DFFF7CAF9E06A2969884200D90D
:1029700028610B4900EB800001EB8000211DFFF76F
:102980000DFAE06A2968C96A884202D90120E86123
:1029900070BD002070BD000024000020B4050020A0
:1029A0002C0100202DE9F0472C4D00242746286BF0
:1029B00038B1FFF7FFF9286B401E2863286B40B140
:1029C00046E0502080F31188BFF34F8FBFF36F8F25
:1029D000FEE7A968224E0120D1B3A6F59169804691
:1029E0003068E0B1F068C46804F11800FFF786F9B8
:1029F000201DFFF783F9E06A2969884200D9286120
:102A000000EB800109EB8100211DFFF7C7F9E06AA7
:102A10002968C96A8842E3D3C5F81C80E0E70CB195
:102A2000FFF724F8AC694CB14FEA0806FFF7DEFE69
:102A300000B1EE61641EF9D10020A861E86938B1E7
:102A40000849012738070860BFF34F8FBFF36F8F26
:102A5000FFF7D0F93846BDE8F087000024000020D9
:102A6000B405002004ED00E02DE9FC4781461E4638
:102A7000174688462C200A9DFFF7AAF804000AD0C2
:102A8000002084F82800CDE9005433463A464146F8
:102A90004846FEF795FE2046BDE8FC877CB52C260F
:102AA000DDE90654009644B1022684F82860CDE999
:102AB0000054FEF785FE20467CBD502080F311882F
:102AC000BFF34F8FBFF36F8FFEE7000010B586B0E6
:102AD000FEF726FD114C2068B8B100200390049049
:102AE00005AA04A903A8FFF727F9DDE903210220BD
:102AF0008DE8070000230AA10B48059AFFF737FE6F
:102B0000606010B106B0012010BD502080F3118824
:102B1000BFF34F8FBFF36F8FFEE700006000002010
:102B2000546D722053766300411B00082DE9FF416C
:102B30001E46134602000A9D4FF0000016D0144CAA
:102B40002768002F0FD0CDE900130292062917DA6B
:102B5000FFF738FE02284FF000030FD0002269462D
:102B60002068FFF7F1FB04B0BDE8F081502080F34E
:102B70001188BFF34F8FBFF36F8FFEE72A46EEE752
:102B80000023324669463846FFF78EFCEBE700002B
:102B9000600000204FF04070E1EE100A7047000026
:102BA000FC2B0008000000000000000000000000F6
:102BB00000000000000200001800000000000000FB
:102BC00000000000052C00080000000000000000CC
:102BD000000000000F2C00080000000000000000B2
:102BE00000000000000000000000000001020304DB
:102BF0000607080900000000010203045461736B1A
:102C00005F4F6E650054696D65725F4F6E6500546D
:102C1000696D65725F54776F000000003C2C0008FE
:102C200000000020A4000000D0010008E02C0008F3
:102C3000A40000207C4F0000EC0100080000000010
:102C40000000000000000000000000000000000084
:102C50000100000010000000000000000024F4004B
:102C60000000000000000000000000000000000064
:102C70000000000000000000000000000000000054
:102C80000000000000000000000000000000000044
:102C90000000000000000000000000000000000034
:102CA0000000000000000000000000000000000024
:102CB0000000000000000000000000000000000014
:102CC0000000000000000000000000000000000004
:102CD0000000000000000000AAAAAAAA000000004C
:040000050800019559
:00000001FF
